:020000040800F2
:10000000980A00208901000875060008B904000854
:100010009D05000839020008631500080000000073
:10002000000000000000000000000000F10C0008CB
:10003000E9020008000000003B0B0008D50E000894
:10004000A3010008A3010008A3010008A301000800
:10005000A3010008A3010008A3010008A3010008F0
:10006000A3010008A3010008A3010008A3010008E0
:10007000A3010008A3010008A3010008A3010008D0
:10008000A3010008A3010008A3010008A3010008C0
:10009000A3010008A3010008A3010008A3010008B0
:1000A000A3010008A3010008A3010008A3010008A0
:1000B000390F0008A3010008A3010008A3010008EC
:1000C000A3010008A3010008A3010008A301000880
:1000D000A301000839120008A3010008A3010008C9
:1000E000A3010008A3010008A301000800F002F822
:1000F00000F03AF80AA090E8000C82448344AAF188
:100100000107DA4501D100F02FF8AFF2090EBAE885
:100110000F0013F0010F18BFFB1A43F0010318473B
:1001200098380000B8380000103A24BF78C878C169
:10013000FAD8520724BF30C830C144BF04680C60ED
:10014000704700000023002400250026103A28BF35
:1001500078C1FBD8520728BF30C148BF0B60704739
:100160001FB51FBD10B510BD00F033F81146FFF7E5
:10017000F7FF01F077FA00F051F803B4FFF7F2FF50
:1001800003BC01F0FEF90000094880470948004718
:10019000FEE7FEE7FEE7FEE7FEE7FEE7FEE7FEE737
:1001A000FEE7FEE704480549054A064B7047000094
:1001B000D90E0008ED00000898040020980A0020DD
:1001C00098060020980600207047704770477047D7
:1001D0007047754600F02CF8AE4605006946534658
:1001E00020F00700854618B020B5FFF7DBFFBDE81B
:1001F00020404FF000064FF000074FF000084FF08E
:10020000000B21F00701AC46ACE8C009ACE8C0091E
:10021000ACE8C009ACE8C0098D46704710B504468B
:10022000AFF300802046BDE81040FFF7A6BF0000F6
:10023000004870473804002000BFFEE710B50446B0
:1002400000F0AEF900F0D0F92146044800F09FFF1D
:100250002146034800F09BFF10BD00000004004051
:100260000008004010B5044600F0A6F900F0CAF9F5
:100270002146044800F08BFF2146034800F087FF29
:1002800010BD0000000400400008004010B500F060
:100290009FF900F0C5F910BD10B5044600F0A4F9AF
:1002A00000F08AF92146044800F071FF2146034816
:1002B00000F06DFF10BD0000000400400008004089
:1002C00010B5044600F09EF900F06AF92146044892
:1002D00000F05DFF2146034800F059FF10BD00000B
:1002E000000400400008004070472DE9F04102463C
:1002F00000250026002000230024002791F803C0D9
:100300000CF00F0591F803C00CF0100CBCF1000FBD
:1003100003D091F802C04CEA050591F800C0BCF189
:10032000000F31D0146800202BE04FF0010C0CFAC4
:1003300000F3B1F800C00CEA03069E4220D183000E
:100340004FF00F0C0CFA03F7BC4305FA03FC4CEA20
:10035000040491F803C0BCF1280F06D14FF0010C42
:100360000CFA00FCC2F814C00AE091F803C0BCF11A
:10037000480F05D14FF0010C0CFA00FCC2F810C078
:10038000401C0828D1D31460B1F800C0BCF1FF0FA5
:1003900034DD546800202EE000F1080C4FF0010815
:1003A00008FA0CF3B1F800C00CEA03069E4221D112
:1003B00083004FF00F0C0CFA03F7BC4305FA03FC63
:1003C0004CEA040491F803C0BCF1280F05D100F1F8
:1003D000080C08FA0CF8C2F8148091F803C0BCF1BC
:1003E000480F07D100F1080C4FF0010808FA0CF88B
:1003F000C2F81080401C0828CED35460BDE8F081BC
:100400000246002093680B400BB1012000E0002061
:1004100070474161704701617047000030B585B099
:1004200005460C460121084600F088FB0121042006
:1004300000F0A4FB28208DF813000120ADF8100077
:1004400003208DF8120004A91A48FFF74EFF14206C
:100450008DF813000820ADF8100004A91548FFF727
:1004600044FF0020ADF80A00ADF80600ADF80850D2
:10047000ADF8044001A94FF0804000F08BFE01224E
:100480001146900700F025FE1C208DF8000000208A
:100490008DF801008DF8020001208DF803006846F8
:1004A00000F0EAF800214FF0804000F0F2FD05B0C6
:1004B00030BD00000008014000BFFEE708B5012183
:1004C000082000F05BFB10208DF803000002ADF85F
:1004D000000003208DF8020069460448FFF705FF7D
:1004E0004FF480510148FFF794FF08BD000C014014
:1004F00010B586B00446012144F2040000F03EFB32
:10050000244800F01FFF18208DF817004FF40070EA
:10051000ADF8140003208DF8160005A91E48FFF75A
:10052000E4FE04208DF817000002ADF8140003204B
:100530008DF8160005A91848FFF7D7FE01940C2086
:10054000ADF80E000020ADF80C00ADF80800ADF8D5
:100550000A00ADF8100001A90E4800F091FF252017
:100560008DF8000001208DF8030000208DF80100B7
:100570008DF80200684600F07FF8012240F2255114
:10058000044800F057FF0121024800F0CEFE06B0FB
:1005900010BD0000003801400008014000BFFEE728
:1005A00010B501210348FFF734FF02210148FFF78E
:1005B00032FF10BD000C014010B502210348FFF7C7
:1005C00028FF01210148FFF726FF10BD000C014064
:1005D00010B501210348FFF71CFF02210148FFF776
:1005E00018FF10BD000C014010B54FF480610448A5
:1005F000FFF70FFF4FF400610148FFF70CFF10BD3C
:10060000000C014010B54FF400610448FFF701FFF2
:100610004FF480610148FFF7FEFE10BD000C014061
:1006200010B54FF480610448FFF7F3FE4FF400610A
:100630000148FFF7EEFE10BD000C014008B5012196
:10064000082000F09BFA10208DF8030040F60340CC
:10065000ADF8000003208DF8020069460448FFF75A
:1006600044FE40F603410248FFF7D3FE08BD0000F8
:10067000000C01407047000070B5002100230F22DC
:10068000C47804B3154C246804F4E064C4F5E06451
:10069000210AC1F10403CA40447804FA03F18478C2
:1006A0001440214309010E4C0678A155047804F04A
:1006B0001F050124AC4005786D11AD0005F1E02562
:1006C000C5F8004109E0047804F01F050124AC409E
:1006D000044D0678761145F8264070BD0CED00E01B
:1006E00000E400E080E100E002490143024A1160B9
:1006F000704700000000FA050CED00E030B5002462
:100700000CE0002506E00020074901EBC501085573
:10071000681CC5B2802DF6DB601CC4B2082CF0DB6F
:1007200000F0B4F830BD00003800002007E040F2CF
:10073000375100BF0A1EA1F10101FBD1401E002864
:10074000F5D17047F0B5144600267F2801DC3F291B
:1007500000DDF0BD0B46CF1701EB5777FF10C7F157
:100760000707FAB2CF1701EB5777FF10A1EBC707C6
:10077000FDB2C5F107070123BB40DEB24CB10A4B05
:1007800003EBC0039B5C3343074F07EBC007BB542D
:1007900008E0054B03EBC0039B5CB343024F07EB40
:1007A000C007BB5400BFD4E73800002010B500F0EC
:1007B0008FF801202D49086000202D49C1F8B801AB
:1007C0006420FFF7B3FF0120284908310860AE20FC
:1007D00000F0C9FED52000F0C6FE802000F0C3FE68
:1007E000A82000F0C0FE3F2000F0BDFED32000F0A6
:1007F000BAFE002000F0B7FE402000F0B4FE8D20CD
:1008000000F0B1FE142000F0AEFE202000F0ABFEA0
:10081000022000F0A8FEA12000F0A5FEC02000F0FC
:10082000A2FEDA2000F09FFE122000F09CFE812044
:1008300000F099FECF2000F096FED92000F093FE44
:10084000F12000F090FEDB2000F08DFE402000F053
:100850008AFEA42000F087FEA62000F084FEAF20D0
:1008600000F081FEFFF74AFF10BD0000B081214279
:100870000080214200B58D2000F075FE142000F0AC
:1008800072FEAF2000F06FFE00BD000030B5002406
:1008900018E004F1B001C8B200F065FE002000F0DD
:1008A00062FE102000F05FFE002507E0074901EB23
:1008B000C501085D00F05EFE681CC5B2802DF5DB49
:1008C000601CC4B2082CE4DB30BD000038000020FE
:1008D00008B50121082000F051F94FF47040ADF83F
:1008E000000010208DF8030003208DF802006946F7
:1008F0000148FFF7FAFC08BD000C01402DE9F84F54
:1009000080460F4616461C46BA462046E31704EBBF
:100910005373DB1021464FEAE47C04EB5C7C4FEA26
:10092000EC0CA4EBCC0CBCF1000F02D04FF0010C8E
:1009300001E04FF0000C6344224604EBD27C4FEA06
:100940006C0C03FB0CF303F0FF0BA6F12000C6B206
:1009500000254EE00C2C07D106EB4600274901EBA1
:100960008000405D009013E0102C05D1244800EB7E
:100970000610405D00900BE0182C07D106EBC60076
:10098000204901EB8000405D009001E0BDE8F88F58
:100990004FF0000927E0009800F0800028B13946A8
:1009A00040460A9AFFF7CEFE09E00A9808B90120EE
:1009B00000E00020024639464046FFF7C3FE00989B
:1009C0004006000E0090781CC7B2A7EB0A00A042B8
:1009D00005D1574608F1010000F0FF0806E009F1D3
:1009E000010000F0FF09B9F1080FD4DB00BF681C5B
:1009F000C5B25D45AEDB00BFC8E700004621000878
:100A0000BA250008AA2B00082DE9F84F80460E46AB
:100A100017461C46B2462046E21704EB5272D2102B
:100A20002146E31704EB5373DB10A4EBC3030BB1B4
:100A3000012300E000231A44624302F0FF0B00256B
:100A400044E00C2C07D107EB4700224901EBC00022
:100A5000405D009009E0102C05D11F4800EB4710C5
:100A6000405D009001E0BDE8F88F4FF0000927E0FD
:100A7000009800F0800028B1314640460A9AFFF7FE
:100A800061FE09E00A9808B9012000E00020024652
:100A900031464046FFF756FE00984006000E009093
:100AA000701CC6B2A6EB0A00A04205D1564608F15A
:100AB000010000F0FF0806E009F1010000F0FF0965
:100AC000B9F1080FD4DB00BF681CC5B25D45B8DBC7
:100AD00000BFC8E78639000806390008F8B50646A1
:100AE0000F4615461C4621E004EBD4714910C1F1B4
:100AF0008001B14202DA00263819C7B2C4F14000C1
:100B0000B84204DA002006460746FFF7F7FD012049
:100B100000902A78234639463046FFF7EFFE2046FC
:100B200004EBD07106EB6101CEB26D1C28787E28F3
:100B300002DC28782028D7DAF8BD704729B1064AA8
:100B4000D2690243044BDA6104E0034AD26982436A
:100B5000014BDA61704700000010024029B1064ADB
:100B600012690243044B1A6104E0034A126982438A
:100B7000014B1A61704700000010024029B1064A7B
:100B800092690243044B9A6104E0034A92698243EA
:100B9000014B9A61704700000010024029B1064ADB
:100BA000D2680243044BDA6004E0034AD26882430D
:100BB000014BDA60704700000010024030B50021A0
:100BC0000022002400232D4D6D6805F00C0121B199
:100BD000042905D0082923D105E0294D056022E02C
:100BE000274D05601FE0254D6D6805F47012234DFB
:100BF0006D6805F48034022505EB92421CB9214D45
:100C0000554305600BE01D4D6D6805F400351DB1C1
:100C10001C4D5543056002E0194D5543056002E047
:100C2000174D056000BF00BF144D6D6805F0F00161
:100C30000909154D6B5C0568DD4045600F4D6D6819
:100C400005F4E061090A104D6B5C4568DD40856084
:100C50000A4D6D6805F46051C90A0B4D6B5C45681F
:100C6000DD40C560054D6D6805F44041890B074DB9
:100C70006B5CC568B5FBF3F5056130BD0010024043
:100C800000127A0000093D00180000202800002012
:100C900010B50022144B19600023144CC4F8B03175
:100CA00000BF16E00023104C0C3C236000F08003D2
:100CB0001BB10123241D236003E000230A4C083CE0
:100CC00023600123084C0C3C23604306180E531C80
:100CD000DAB2082AE6DB0123034C0C3C2360034C08
:100CE000C4F8BC3110BD0000BC812142008021420B
:100CF000704700002DE9F05F0024A146A3464AE0BA
:100D000001202A490860142000F086FC00202849B0
:100D1000C1F88C0100BF01212648FFF771FB0028B4
:100D2000F9D00121880700F0B4F90BF1010000F0BF
:100D3000FF0B00BF01211F48FFF762FB0128F9D01C
:100D400000214FF0804000F0A4F94FF0804000F007
:100D5000ACF982461849098801EB4102C2EBC11186
:100D60000AEBC10000F000FF07460022134B00F021
:100D7000A3FD054600F062FD04464946204600F00A
:100D8000FDFF814600204FF0804188840A49088099
:100D90000A2000F01BFCBBF1050FB1D10849484601
:100DA00001F04EF804462046BDE8F09F8C01214238
:100DB00000002142000801403600002000004D40A4
:100DC0000000A04010B500F001F810BD0CB50020E7
:100DD000019000903348006840F480303149086049
:100DE00000BF3048006800F4003000900198401CBB
:100DF0000190009818B90198B0F5A06FF1D1294879
:100E0000006800F4003010B10120009001E00020E3
:100E100000900098012843D12348006840F010005A
:100E2000214908600846006820F003000860084671
:100E3000006840F0020008601A484068194948609C
:100E40000846406848600846406840F48060486052
:100E50000846406820F47C1048600846406840F42A
:100E6000E81048600846006840F08070086000BFE5
:100E70000C48006800F000700028F9D0094840686C
:100E800020F00300074948600846406840F002002F
:100E9000486000BF0348406800F00C000828F9D102
:100EA0000CBD00000010024000200240042808D1C0
:100EB0004FF0E021096941F004014FF0E022116197
:100EC00007E04FF0E021096921F004014FF0E02232
:100ED000116170477047000010B51348006840F07A
:100EE00001001149086008464068104908400E4951
:100EF0004860084600680E4908400B4908600846EB
:100F0000006820F4802008600846406820F4FE0055
:100F100048604FF41F008860FFF754FF4FF00060F7
:100F20000449086010BD0000001002400000FFF8F6
:100F3000FFFFF6FE08ED00E010B50121880700F084
:100F4000B7F840B10121880700F0A0F802480088F6
:100F5000401C0149088010BD3600002030B589B022
:100F600005460C4601210220FFF7E8FD012104207F
:100F7000FFF704FE18208DF823004020ADF8200074
:100F800003208DF8220008A91548FFF7AEF9ADF847
:100F90001850ADF814400020ADF81600ADF81A0056
:100FA00005A9104800F0F6F86020ADF80400002014
:100FB000ADF80C000120ADF8060001A9094800F0C9
:100FC00091F80821074800F0D9F80121054800F000
:100FD00051F80121034800F05CF809B030BD000071
:100FE000000801400004004030B589B005460C46B9
:100FF00001210420FFF7A2FD01210820FFF7BEFD1B
:101000004020ADF8200018208DF8230003208DF833
:10101000220008A91548FFF768F9ADF81850ADF897
:1010200014400020ADF81A00ADF8160005A91048CC
:1010300000F0B0F86020ADF804000020ADF80C001E
:101040000120ADF8060001A9094800F04BF808217D
:10105000074800F093F80121054800F00BF8012142
:10106000034800F016F809B030BD0000000C014044
:101070000008004021B1028842F08002028004E0B2
:1010800002884FF67F731A4002807047CA4302827B
:10109000704721B1028842F00102028004E0028818
:1010A0004FF6FE731A40028070470146888C7047E5
:1010B00030B50246002000230024158A05EA01030A
:1010C000958905EA010413B10CB1012000E000206C
:1010D00030BD1AB183890B43838102E083898B433E
:1010E0008381704770B5002400220023058C4FF6E1
:1010F000FE7635400584028C8388048B4FF68F750D
:101100002C40B51E2C400D882C43751E2A400D899D
:101110002A434D882A43144DA8420BD0134DA842B0
:1011200008D0134DA84205D0124DA84202D0124D4E
:10113000A84213D14FF6F7752A404D892A434FF63E
:10114000FB752A408D882A434FF6FF652B404FF6EA
:10115000FF552B408D892B43CD892B4383800483FE
:10116000CD888586028470BD002C0140003401408A
:101170000040014000440140004801400A4600216F
:10118000018B4FF6F7731940114301837047818635
:1011900070470000002202881D4B98420ED01D4B64
:1011A00098420BD0B0F1804F08D01B4B984205D02D
:1011B0001A4B984202D01A4B984204D14FF68F73C3
:1011C0001A404B881A43174B984207D0164B984247
:1011D00004D04FF6FF431A40CB881A4302808B8815
:1011E00083850B8803850A4B98420BD0094B9842A4
:1011F00008D00E4B984205D00D4B984202D00D4BB3
:10120000984201D10B7A0386012383827047000044
:10121000002C014000340140000400400008004060
:10122000000C00400010004000140040004001404D
:10123000004401400048014010B540F225512E48BD
:1012400000F0CEF8012856D140F225512A4800F08E
:101250005DF84FF480612948FFF7DDF8264800F07B
:101260007BF92749087008460078302802D1002011
:101270002449087022480078312802D101202149F0
:1012800008701F480078322802D102201D490870DA
:101290001B480078332802D103201A4908701848E7
:1012A0000078342802D104201649087014480078C8
:1012B000352802D1052013490870114800783628D6
:1012C00002D106200F4908700D480078372802D156
:1012D00007200C4908700A480078382802D10820F5
:1012E0000849087006480078392804D10648007873
:1012F000C0430549087010BD00380140000C014092
:1013000032000020330000203400002010B50022FD
:10131000002340F66A14A14200D100BF0A12012442
:101320009440A3B2DC43048010BD21B1828942F411
:101330000052828104E082894DF6FF731A40828157
:101340007047000010B504462048844209D10121AD
:101350008803FFF723FC00214FF48040FFF71EFCB9
:1013600032E01B48844209D101214804FFF7F6FB13
:1013700000214FF40030FFF7F1FB25E015488442CF
:1013800009D101218804FFF7E9FB00214FF48020F7
:10139000FFF7E4FB18E01048844209D10121C8049A
:1013A000FFF7DCFB00214FF40020FFF7D7FB0BE039
:1013B0000A48844208D101210805FFF7CFFB00212C
:1013C0004FF48010FFF7CAFB10BD00000038014049
:1013D0000044004000480040004C004000500040E5
:1013E00070B50246002400230025002040F66A164E
:1013F000B14200D100BFC1F3421501F01F03012625
:1014000006FA03F3012D02D19689334006E0022D3E
:1014100002D1168A334001E0968A33400C1201262D
:1014200006FA04F41688344013B10CB1012000E030
:10143000002070BDF0B503460024002600250020E2
:1014400040F66A17B94200D100BF1846C1F34214F2
:1014500001F01F06012707FA06F5012C01D10C3017
:1014600004E0022C01D1103000E014301AB10768FA
:101470002F43076002E00768AF430760F0BD00003C
:101480002DE9F04786B005460E460024A24600BF6F
:10149000A1460027B08900B100BF2F462C8A4CF628
:1014A000FF700440F08804432C82AC894EF6F310A0
:1014B0000440B08831890843718908430443AC81F2
:1014C000AC8A4FF6FF400440B0890443AC8201A8C7
:1014D000FFF774FB1F48874202D1DDF810A001E03E
:1014E000DDF80CA0A88900F4004040B10AEBCA0066
:1014F00000EB0A1031684900B0FBF1F807E00AEB95
:10150000CA0000EB0A1031688900B0FBF1F86420D2
:10151000B8FBF0F004012009642101FB1089A889BF
:1015200000F4004040B1322000EBC900B0FBF1F004
:1015300000F00700044308E0322000EB09106421AA
:10154000B0FBF1F000F00F0004432C8106B0BDE8C1
:10155000F08700000038014001468888C0F3080089
:10156000704700BFFEE710B5044600212046FFF794
:101570008FFB10BD10B5044601212046FFF788FB04
:1015800010BD00BF7047000010B56FF00400FFF7FA
:101590008DFC0A4800680A49B0FBF1F0094908705F
:1015A0000846007800EB4001C1EBC0104FF6FF7118
:1015B00001EAC0000449088010BD000000000020BE
:1015C00000127A0014000020160000200146114A83
:1015D00012884A434FF0E0235A6100229A611A466A
:1015E000126942F001021A6100BF4FF0E022106957
:1015F00000F001021AB100F48032002AF5D04FF059
:10160000E022126922F001024FF0E0231A61002269
:101610009A617047160000200146114A12784A4329
:101620004FF0E0235A6100229A611A46126942F093
:1016300001021A6100BF4FF0E022106900F00102C0
:101640001AB100F48032002AF5D04FF0E02212697E
:1016500022F001024FF0E0231A6100229A617047E4
:101660001400002008B54FF41650FEF741FF4FF468
:10167000A060FFF739F8FEF721FFFFF785FFFEF7BF
:10168000DDFF002140F28330FFF768FC002140F2CB
:101690008330FFF7A9FC472140F2E730FEF7BEFE9A
:1016A0004FF480515448FEF7B4FEFFF711F9FFF7ED
:1016B0007DF8FFF7DFF8FFF721F80C234FA2102188
:1016C0001820FFF70BFA012010230022114600908A
:1016D0001046FFF799F901201023024600210090DF
:1016E0001846FFF791F901201023022200210090F3
:1016F0002020FFF789F90120102303220021009008
:101700003020FFF781F901200C23002210210090E6
:101710001046FFF779F901200C23024610210090B2
:101720001846FFF771F90C2337A228210020FFF794
:10173000D5F90C233AA234210020FFF7CFF90C236E
:1017400039A234212A20FFF7C9F9FFF79FF851E0A9
:10175000374800780F282DD136480078092825D23F
:10176000DFE800F005080C1014181B1E2100FEF71E
:101770008DFD1EE02046FEF775FD1AE02046FEF7BF
:101780005DFD16E02046FEF787FD12E02046FEF7DD
:1017900097FD0EE04FF416740BE04FF4AF7408E0C1
:1017A0004FF4E17405E04FF4487402E0FEF76EFD7B
:1017B00000BF1FE05020FFF709FFFFF79BFA074625
:1017C0005020FFF703FF384600F0ACFA0546002230
:1017D000194B00F071FA04D24FF4B470FEF742FDD9
:1017E00008E04FF480510448FEF715FE4FF4B47042
:1017F000FEF752FDACE70000000C01403A333131F6
:101800003930303038383000456469742054494DDF
:10181000453A20323032302F322F3139000000006B
:101820005772697465723A004D722E4368656E0096
:10183000340000203300002000003E4021F0004230
:10184000A2F16052B2F5801F01F0004328BFD2F12F
:101850007F6C0BD95FEA001C43EAC20242EB507076
:1018600018BF704728BF20F001007047B2F5801FF5
:10187000BCBF184670474FEA410C1CF5001F02D24E
:10188000084600F0E5BB70B500F0C2F90000008921
:10189000FFF7F6BF4FF00040A0F5800070474910F9
:1018A00058BFC1F140415B1058BFC3F140438B4268
:1018B000EFF30080704700002DE9C04130B4DFF83D
:1018C000A0C23CEA111418BF3CEA131400F0EC80EB
:1018D00081EA03051CEA111444EAD57418BF1CEA16
:1018E000131500F0C780A4EB05044FF0004545EA4E
:1018F000C12145EAC32341EA505143EA525304F15E
:101900007F74994204F500344FEAC0204FEAC222A6
:1019100008BF904200F09C804FEA13650FF240161A
:10192000765D4FEA134506FB05F7C7F1807706FBA6
:1019300007F74FEAD737A7FB03687642C8F5803828
:10194000A7FB06CE38BFA8F1010807FB08E64FF059
:10195000000EA6FB028CE6FB03CEDCF1000CCEF100
:10196000004E38BFAEF1010EA6FB0C584FF0000739
:101970004FF00005E6FB0E87A1FB08C6A0FB07CED3
:1019800016EB0E0645F10005E1FB076515F1E04E8B
:101990007EBFA4F580345FEA46066D4116F18007EC
:1019A00045F100054FEA17274FEA066647EA056743
:1019B000A6F1DE46B6F1805F4FEA15251FD93846FD
:1019C00024F0010C05EBC471BCF1FE6F01EB0C11AE
:1019D00002D8F0BCBDE8008124425CBF01F5801E46
:1019E0009EEAC47F02D4F0BCBDE80081244238D412
:1019F000F0BCA1F1C041BDE8004100F057B94FEA89
:101A0000D22242EA43524FEAD323A7FB02864FEA8F
:101A1000D02040EA415007FB03661EEA0E0F4FEA52
:101A2000D12105FB026658BFA6EB0056B6EB005667
:101A30004FEA520E4EEAC37E18EB0E0E56EB530ED3
:101A4000BDD518EB02085E417F1C55F10005B6E7D5
:101A50004FF480154FF000074FF000064FF00008DC
:101A6000ADE7F0BC4FF0000001F1C04101F00041D2
:101A7000BDE8008111EA0C1F0CEA131500D00CE040
:101A800013EA0C1F00F025804FF00000F0BC81EA43
:101A9000030101F00041BDE80081F0BCBDE8004158
:101AA00081EA030100F002B9F0BCBDE8004170B565
:101AB00000F0AEF8097EFC3E00F007B881EA0301B1
:101AC0004FF0000001F00041704781EA030100F08F
:101AD000EDB8F0BCBDE800414FF00000214970476F
:101AE000FFFDFBF9F7F5F4F2F0EEEDEBE9E8E6E4E3
:101AF000E3E1E0DEDDDBDAD8D7D5D4D3D1D0CFCD6A
:101B0000CCCBCAC8C7C6C5C4C2C1C0BFBEBDBCBBA2
:101B1000BAB9B8B7B6B5B4B3B2B1B0AFAEADACAB9D
:101B2000AAA9A8A8A7A6A5A4A3A3A2A1A09F9F9E77
:101B30009D9C9C9B9A999998979796959594939329
:101B4000929191908F8F8E8E8D8C8C8B8B8A8989C0
:101B50008888878786858584848383828281818043
:101B60000000FF070000F87F10F0004248BF40422D
:101B7000B0FA80F310FA03F10AD0C3F11D0303F5A4
:101B800080634FEA415002EB035202EBD1217047D0
:101B90004FF000007047000051EA030C17D41CF509
:101BA000801F58BFBCF5801F00F10680994218BF06
:101BB000704708BF9042704707D711F5801F58BF84
:101BC00013F5801F19D499427047894270471CF55C
:101BD000801F08D5BCF5801FF7D58B4218BF704712
:101BE00008BF824270474FF4001C1CEB410F38BF06
:101BF0001CEB430F01D28B42704770B500F008F820
:101C0000922449004FF000514FF08053FFF747BE38
:101C10000EF1020E2EF0030E5EF8046B364205D470
:101C2000012A43EB030515F5001F12D8012841EBEB
:101C3000010C1CF5001F0CD80ED14FEAD17C15F514
:101C4000001F0CEB4C0C0CF1020C08BF4CEBD37CCE
:101C500004E04FF0080C01E04FEAD37C0CEB4C059C
:101C600026FA05F606F00706B6F1040C06D20EEBCE
:101C7000860CBDE870404CF0010C6047DFE80CF0CA
:101C8000090B02024FF000414FF00000A1F50021C6
:101C900070BD19461046012851EB010418BFD4F558
:101CA000001484BF002001F0004170BD0808A0F5B9
:101CB00000114FEA3101704753EA010C17D41CF5AB
:101CC000801F58BFBCF5801F00F106808B4218BFF3
:101CD000704708BF8242704707D713F5801F58BF6F
:101CE00011F5801F19D48B4270479B4270471CF539
:101CF000801F08D5BCF5801FF7D5994218BF7047E3
:101D000008BF904270474FF4001C1CEB430F38BFD4
:101D10001CEB410F01D2994270470FB40CBC03BCBD
:101D2000FFF76BBF43004FEAD30C4FEA3C0C434034
:101D30001FBF40070CF1605113F0FE4F70471CF0BD
:101D4000006F03D100200CF0004170470CF00043FD
:101D500043EA507010B540EACC0000F033F900BF00
:101D6000000000924FEA0001FFF7A0BF4FF00041D2
:101D70004FF00000A1F500217047000090EA010F2C
:101D800048BF81F0004100F17081421A3CBF801AC7
:101D900089184FEAD0524FF07F4C1CEA410FA2EB5A
:101DA000D15318BF9CEA026F00F03B804FF0004C0B
:101DB0004CEA00204CEA012121FA03FC10EB0C0C48
:101DC0001ED202F1FF325FEA1C2040EBC25038BF46
:101DD00070471CF07F0F4FEA400C18BFBCF17F4FDB
:101DE00038BF7047C3F12003994008BF20F00100BD
:101DF000BCF17F4F38BF7047A0F1C04000F028B958
:101E00004FEA3C00000A40EBC25028BF1CF0FF0F15
:101E10004FEA400CE6D018BFBCF17F4F38BF704787
:101E2000EAE79CEA026F05D010EA5C0F08BF00F0F9
:101E30000040704710B500F0C5F800BF64FBBE3E1F
:101E40004FF47F0C1CEAD0121EBF1CEAD11392EA99
:101E50000C0F93EA0C0F00F0858090EA010F48BF49
:101E600042F4807240F4000C41F400002CF07F41F9
:101E700020F07F4000B58142A2EB03020FF2081C64
:101E8000ACEB504EC0F100009EF800E04FEA4E0E61
:101E900000FB0EFC38BF49004FEA2C1C02F5FA0289
:101EA0000CFB0EF34FEACE1E4FEA112C4FEAC12174
:101EB0000EEB635E42EB22420EFB0CFC4FEA1C531E
:101EC00000FB03114FEA112C4FEA01310EFB0CFC11
:101ED0004FEADC4C00FB0C11C14228BF09184CEB47
:101EE00003335DF804EB10EB410143EBC250B2F554
:101EF0007C0F38BF704729D512F0F00F1CBF00F1DE
:101F0000C04000F00040704700818283848586874E
:101F100088898B8C8D8E8F919293959697999A9CA8
:101F20009D9FA0A2A3A5A7A8AAACAEB0B2B3B5B717
:101F3000B9BCBEC0C2C5C7C9CCCED1D4D7D9DCDFED
:101F4000E2E6E9ECF0F3F7FAFE0000004FEA400C9D
:101F50000CF1807CBCF17E4F28BF7047B0F1C040CF
:101F600000F076B890EA010F0CEAD11348BF42F4B2
:101F70008072624538BF634507D213F47F0F16D0D5
:101F800080EA010000F00040704710B500F01AF838
:101F9000097EFC3E00F005B880EA010000F0004038
:101FA000704780EA010000F0004000F051B812F4E0
:101FB0007F0F04BF0248704780EA010000F048B874
:101FC0000000C07F0EF1020E2EF0030E5EF8044BEF
:101FD000244204D44FEA4102B2F17F4F11D84FEAB4
:101FE0004003B3F17F4F0CD80ED14FEAD07CB2F151
:101FF0007F4F0CEB4C0C0CF1020C08BF4CEBD17C6E
:1020000004E04FF0080C01E04FEAD17C0CEB4C03EC
:1020100024FA03F404F00704B4F1040C06D20EEB26
:10202000840CBDE810404CF0010C6047DFE80CF078
:10203000070802024FF00040A0F5800010BD0846DE
:10204000420018BFD2F1807288BF00F0004010BD7E
:10205000FF2141EAD050C0057047000090EA010F0F
:1020600048BF81F000413FF590AE421A04D882F09B
:102070000042A0EB020011444FEAD0524FF07F4CD7
:102080001CEA410FA2EBD15318BF9CEA026F4AD061
:102090004FF0004C4CEA00204CEA012121FA03FCED
:1020A000B0EB0C0C0FD412F0FE0F36D05FEA4C00F0
:1020B0001DD5001240EBC25038BF70471CF03F0FD7
:1020C00018BF70470BE0A2F101025FEA1C2040EB51
:1020D000C25038BF70471CF07F0F18BF7047C3F164
:1020E0002003994014BF401E20F001007047800873
:1020F0004FEA122308BF7047B0FA80FCA2EB0C0233
:10210000CCF1280C60FA0CF093EA122F04BF00EB1C
:10211000C25070474FEAC3707047130A5FEADC1081
:1021200008BF7047F6E79CEA026F04D010EA5C0F24
:1021300008BF0020704710B5FFF744FF40DFF63EB0
:1021400081F0004070470000000000000000000027
:102150000000000000003F40000000000000000000
:102160003000400030004000000009000BC03D007E
:102170000BC03D00090018C024407FE022403180A0
:102180000000180024C01B000D8032400180038035
:102190001C4027401C8007400040100060000000E9
:1021A0000000000000000000000000001F80204030
:1021B00040200000402020401F8000000000090057
:1021C00006001F80060009000000040004003F8094
:1021D0000400040000000010006000000000000087
:1021E00000000400040004000400040000000000DB
:1021F00000400000000000000000002001C00600B8
:102200003800400000001F802040204020401F80F8
:102210000000000010403FC000400000000018C057
:1022200021402240244018400000108020402440DB
:1022300024401B80000002000D0011003FC001403F
:1022400000003C80244024402440238000001F8064
:10225000244024403440038000003000200027C088
:102260003800200000001B802440244024401B80B4
:1022700000001C0022C0224022401F8000000000FD
:1022800000000840000000000000000000000460A2
:10229000000000000000000004000A00110020807F
:1022A0004040090009000900090009000000000081
:1022B0004040208011000A00040018002000234044
:1022C0002400180000001F802040274029401F40A4
:1022D0000000004007C039000F0001C0004020404E
:1022E0003FC0244024401B8000001F80204020402D
:1022F00020403080000020403FC0204020401F8010
:10230000000020403FC024402E4030C0000020404C
:102310003FC024402E00300000000F0010802040FD
:1023200022403380020020403FC0040004003FC030
:102330002040204020403FC020402040000000605E
:10234000202020203FC02000200020403FC024400B
:102350000B0030C0204020403FC0204000400040E3
:1023600000C03FC03C0003C03C003FC00000204014
:102370003FC00C4023003FC020001F802040204071
:1023800020401F80000020403FC02440240018004F
:1023900000001F802140214020E01FA000002040BD
:1023A0003FC02440260019C0004018C024402440EB
:1023B000224031800000300020403FC020403000EB
:1023C000000020003F80004000403F8020002000AF
:1023D0003E0001C0070038002000380007C03C0064
:1023E00007C038000000204039C0060039C0204036
:1023F00000002000384007C0384020000000304076
:1024000021C02640384020C00000000000007FE0CE
:10241000402040200000000070000C0003800040BD
:1024200000000000402040207FE00000000000008D
:1024300020004000200000000000001000100010EC
:10244000001000100010000000004000000000001C
:102450000000000002800540054003C0004020004D
:102460003FC004400440038000000000038004409B
:1024700004400640000000000380044024403FC0A8
:1024800000400000038005400540034000000000BC
:1024900004401FC0244024402000000002E00550FA
:1024A00005500650042020403FC00440040003C0F3
:1024B00000400000044027C0004000000000001061
:1024C0000010041027E00000000020403FC0014041
:1024D000070004C00440204020403FC000400040AE
:1024E000000007C0040007C0040003C0000004404F
:1024F00007C00440040003C0004000000380044003
:10250000044003800000041007F0045004400380DE
:102510000000000003800440045007F00010044055
:1025200007C002400400040000000000064005400F
:10253000054004C00000000004001F80044000406B
:102540000000040007800040044007C00040040071
:10255000070004C0018006000400060001C0070057
:1025600001C006000000044006C0010006C004408F
:1025700000000410071004E00180060004000000C1
:10258000044005C0064004400000000000000400B4
:102590007BE040200000000000000000FFF0000091
:1025A0000000000040207BE004000000000040002C
:1025B00080004000200020004000000000000000DB
:1025C000000000000000000000000000000000000B
:1025D0001FCC000C000000000000000008003000CC
:1025E00060000800300060000000022003FC1E2094
:1025F000022003FC1E200220000000000E1811041F
:102600003FFF10840C78000000000F0010840F388A
:1026100000C0077818840078000000780F8410C488
:1026200011240E9800E4008400080800680070007F
:10263000000000000000000000000000000000009A
:1026400007E01818200440020000000040022004A7
:10265000181807E00000000000000240024001805E
:102660000FF00180024002400000008000800080E6
:102670000FF800800080008000000001000D000EB7
:10268000000000000000000000000000008000804A
:10269000008000800080008000800000000C000CA2
:1026A000000000000000000000000000000600180C
:1026B00000600180060018002000000007F00808F4
:1026C00010041004080807F00000000008040804C3
:1026D0001FFC000400040000000000000E0C101499
:1026E0001024104411840E0C000000000C1810047B
:1026F0001104110412880C700000000000E0032097
:10270000042408241FFC0024000000001F981084EB
:1027100011041104108810700000000007F00888F0
:102720001104110418880070000000001C00100043
:1027300010FC13001C001000000000000E381144B3
:102740001084108411440E38000000000700088C2B
:1027500010441044088807F000000000000000004A
:10276000030C030C0000000000000000000000014A
:102770000106000000000000000000000080014091
:102780000220041008081004000002200220022089
:10279000022002200220022000000000100408088D
:1027A0000410022001400080000000000E00120012
:1027B000100C106C10800F00000003E00C1813E4E4
:1027C000142417C4082807D000000004003C03C4E8
:1027D0001C40074000E4001C000410041FFC11040E
:1027E000110411040E880070000003E00C1810049E
:1027F0001004100410081C10000010041FFC10042A
:1028000010041004080807F0000010041FFC110455
:10281000110417C410040818000010041FFC110450
:10282000110017C010000800000003E00C1810048D
:10283000100410441C780040000010041FFC108499
:102840000080008010841FFC10040000100410049D
:102850001FFC100410040000000000030001100120
:1028600010011FFE10001000000010041FFC1104D6
:1028700003801464181C1004000010041FFC1004D2
:10288000000400040004000C000010041FFC1F00E2
:1028900000FC1F001FFC1004000010041FFC0C04AF
:1028A000030000E010181FFC100007F008081004D7
:1028B00010041004080807F0000010041FFC108426
:1028C0001080108010800F00000007F008181024FE
:1028D0001024101C080A07F2000010041FFC110449
:1028E000110011C011300E0C000400000E1C110468
:1028F0001084108410441C380000180010001004CC
:102900001FFC100410001800000010001FF8100435
:102910000004000410041FF8100010001E0011E055
:10292000001C007013801C0010001FC0103C00E051
:102930001F0000E0103C1FC000001004180C1634EB
:1029400001C001C01634180C100410001C00130440
:1029500000FC13041C00100000000804101C10648C
:10296000108413041C041018000000000000000074
:102970007FFE4002400240020000000030000C00D8
:1029800003800060001C00030000000040024002C1
:1029900040027FFE00000000000000000000200058
:1029A0004000400040002000000000010001000144
:1029B0000001000100010001000100004000400092
:1029C000200000000000000000000000009801242A
:1029D00001440144014400FC000410001FFC008875
:1029E00001040104008800700000000000700088ED
:1029F0000104010401040088000000000070008848
:102A00000104010411081FFC0004000000F8014447
:102A100001440144014400C8000000000104010415
:102A20000FFC1104110411001800000000D6012948
:102A30000129012901C90106000010041FFC0084BE
:102A400001000100010400FC00040000010419045D
:102A500019FC000400040000000000000003000155
:102A60000101190119FE0000000010041FFC0024E0
:102A7000004001B4010C0104000000001004100427
:102A80001FFC0004000400000000010401FC01041C
:102A9000010001FC0104010000FC010401FC0084B0
:102AA00001000100010400FC0004000000F8010422
:102AB00001040104010400F80000010101FF008588
:102AC000010401040088007000000000007000880C
:102AD00001040104010501FF00010104010401FCDE
:102AE00000840104010001800000000000CC0124EA
:102AF00001240124012401980000000001000100CC
:102B000007F80104010400000000010001F80004BE
:102B100000040004010801FC0004010001800170B0
:102B2000000C001001600180010001F0010C003078
:102B300001C00030010C01F0010000000104018C13
:102B400000740170018C0104000001010181017118
:102B5000000E001801600180010000000184010CDA
:102B6000013401440184010C000000000000000059
:102B7000000001003EFC4002400200000000000096
:102B80000000FFFF000000000000000040024002C3
:102B90003EFC01000000000000000000600080001A
:102BA00080004000400020002000000000000000E5
:102BB0000000000000000000000000000000000015
:102BC0000000000000000000000000000000000005
:102BD000000000000000000000000000000F80382E
:102BE0000FFE380F803800000000000000000000D9
:102BF00000000000000000000100000600000C00C2
:102C0000003800003100000600000C000038000011
:102C10003000000000000000000061800067F8073D
:102C2000F980006180006180006180006180006740
:102C3000F807F9800061800000000000000000003B
:102C400001C0E003E0F00630080418081FFFFE048E
:102C50000E080787F00381E000000000000001F08B
:102C600000060C00040408060C7001F9C0000E00F8
:102C7000003BE000EC18070808040C180003E00013
:102C800000000001E00007F003F818041C08041716
:102C90000807E1D003C0E00023B0003C0800200892
:102CA00000001000000000000001000031000032B0
:102CB00000001C00000000000000000000000000F8
:102CC0000000000000000000000000000000000004
:102CD000000000000000000000007F0001FFC007AE
:102CE00080F00C001810000420000200000000001A
:102CF000002000021000040C00180780F001FFC043
:102D0000007F000000000000000000000000000044
:102D10000000000000004200006600006600003C69
:102D20000000180003FFC0001800003C000066000F
:102D300000660000420000000000080000080000DB
:102D4000080000080000080001FFC000080000089B
:102D5000000008000008000008000000000000015A
:102D600000003100003200001C00000000000000E4
:102D70000000000000000000000000000000000053
:102D8000000008000008000008000008000008001B
:102D9000000800000800000800000800000800000B
:102DA00000000000000000000000380000380000B3
:102DB00038000000000000000000000000000000DB
:102DC00000000000000000000000000600001C00E1
:102DD0000070000180000E0000380000C0000700F5
:102DE000001C0000300000000000000000007F8098
:102DF00001FFE003807006001804000804000806C4
:102E0000001803807001FFE0007F800000000000D8
:102E10000000000001000801000801000803FFF89D
:102E200007FFF8000008000008000008000000008C
:102E3000000000000001C03802C0580400980401DE
:102E400018040218040418061C1803F81801E0F806
:102E500000000000000000000001C0E003C0F0041A
:102E6000000804080804080806180803F41801E715
:102E7000F00001E00000000000000000000003007E
:102E8000000D000011000061000081080301080727
:102E9000FFF80FFFF8000108000108000000000023
:102EA000000000E007FCD00608080610080610081D
:102EB000061008061838060FF00607C000000000CC
:102EC0000000000000003F8001FFE00384300208A2
:102ED00018041008041008041008071810030FF055
:102EE0000007C000000000000000000003C0000751
:102EF00000000600000600F80607F806180006E0C5
:102F00000007000006000000000000000001E1E0F2
:102F100003F7F0063410041808041808040C080419
:102F20000C0806161803F3F001C1E00000000000D1
:102F30000000F80003FC300306380402080402080D
:102F40000402080404100308F001FFC0007F000021
:102F50000000000000000000000000000000000071
:102F60000000703800703800703800000000000069
:102F70000000000000000000000000000000000051
:102F8000000000000000301A00301C0000000000AB
:102F90000000000000000000000000000000000031
:102FA00000080000140000220000410000808001A1
:102FB000004002002004001008000800000000008B
:102FC000000021000021000021000021000021005C
:102FD000002100002100002100002100002100004C
:102FE00000000000000000000800080400100200BB
:102FF00020010040008080004100002200001400F9
:1030000000080000000000000003C00004C000042D
:103010000000080038080F380808380810000C3085
:103020000007E00003C000000000000000003F8037
:1030300000FFE0038070020F1006708804C088044F
:103040008308047F8802C09003012000FE40000036
:10305000080000180001F8003E0801C20007020045
:1030600007E20000FE00001FC80001F80000380061
:10307000000804000807FFF807FFF8040808040820
:103080000804080804080806180803F41801E7F003
:103090000001E0000000000000003F8001FFE003AD
:1030A00080700200180400080400080400080400EE
:1030B000100600200780C000000004000807FFF889
:1030C00007FFF804000804000804000804001802C0
:1030D000001003807001FFE0007F8000000004000A
:1030E0000807FFF807FFF8040808040808040808A0
:1030F000040808043E0804000806001801006000E7
:10310000000004000807FFF807FFF8040808040897
:1031100000040800040800043E0006000006000049
:10312000018000000000000000003F8001FFE0037C
:103130008070060018040008040208040208020354
:10314000F00783F000020000020004000807FFF807
:1031500007FFF80408080008000008000008000045
:10316000080004080807FFF807FFF804000800003B
:103170000000000004000804000804000807FFF82D
:1031800007FFF8040008040008040008000000001D
:10319000000000000000000600000700000104001D
:1031A0000104000104000307FFFE07FFFC04000008
:1031B00004000004000004000807FFF807FFF804FB
:1031C0000C08001800003E0004C7800503C8060074
:1031D000F804003804001800000804000807FFF88D
:1031E00007FFF804000800000800000800000800BD
:1031F0000008000008000018000060000000040043
:103200000807FFF807800807FC00007FC00003F8EC
:103210000007C000780007800807FFF807FFF804E0
:10322000000804000807FFF807000803C00000E0DA
:1032300000003800001E000007000001C00400F07C
:1032400007FFF8040000000000007F8001FFE0039A
:103250008070060018040008040008060018030027
:103260003001FFE0007F8000000004000807FFF845
:1032700007FFF80404080404000404000404000424
:103280000400060C0003F80001F00000000000003C
:1032900000007F8001FFE003807006008804008842
:1032A0000400C806003C03003E01FFE6007F8400E6
:1032B000000004000807FFF807FFF80408080408E6
:1032C00000040C00040F00040BC00610F003F038DB
:1032D00001E00800000800000001E0F803F03006FB
:1032E0003010041808041808040C08040C0802061E
:1032F000180207F00781E0000000018000060000CE
:1033000004000004000004000807FFF807FFF804A9
:103310000008040000040000060000018000040012
:103320000007FFE007FFF004001800000800000895
:1033300000000800000800000804001007FFE00477
:10334000000004000006000007E00007FE00041F64
:10335000E00001F80000380001E0043E0007C00072
:1033600006000004000004000007E00007FFC0049E
:103370001FF80007C007F80007FF80043FF80007A8
:10338000C004F8000700000400000000000400086A
:1033900006001807C07805F1C8003E00001F800431
:1033A00063E80780F8060018040008000000040025
:1033B0000006000007800007E008047C08001FF8F2
:1033C0000007F800180804E00807000006000004E1
:1033D00000000000000100080600380400F80403A3
:1033E000E8040F08047C0805F00807C00807001867
:1033F0000400600000000000000000000000000069
:1034000000000000003FFFFE20000220000220001C
:103410000220000220000200000000000000000066
:1034200008000007000000C000003800000600008F
:1034300001C000003000000E00000100000000008C
:1034400000000000200002200002200002200002F4
:103450002000023FFFFE000000000000000000000E
:103460000000000000000000000000080000100044
:1034700000300000200000300000100000080000B4
:103480000000000000000000010000010000010039
:103490000001000001000001000001000001000027
:1034A0000100000100000100000100000000000018
:1034B00000000020000020000010000010000000AC
:1034C00000000000000000000000000000000000FC
:1034D000000000F00019F8001B1800220800260860
:1034E000002408002410003FF8001FF80000080026
:1034F000001800000004000007FFF80FFFF000189C
:1035000018001008002008002008003018001FF0E4
:10351000000FC00000000000000007C0001FF00006
:103520001830002008002008002008003C08001C7B
:10353000100000600000000000000000000007C054
:10354000001FF000381800200800200800200804A0
:10355000101007FFF80FFFF000001000000000003F
:10356000000000000007C0001FF000123000221809
:10357000002208002208003208001E10000E200061
:10358000000000000000200000200800200801FFCB
:10359000F803FFF80620080420080420080720008C
:1035A00003000000000000000000000E000E6E008E
:1035B0001FF30031B10020B10020B1003191001F94
:1035C00013002E1E00200E00300000000004000832
:1035D00007FFF80FFFF8001008002000002000008F
:1035E0002008003FF8001FF800000800000000005D
:1035F00000000000002008002008002008063FF816
:10360000063FF80000080000080000080000000065
:103610000000000000000000000003000003002084
:1036200001002001002003063FFE063FFC000000D1
:1036300000000000000000000004000807FFF80F71
:10364000FFF8000188000300002FC00038F80020B8
:103650003800200800000800000000000000000002
:1036600004000804000804000807FFF80FFFF80032
:103670000008000008000008000000000000002012
:1036800008003FF8003FF8001008002000003FF855
:10369000003FF8001008002000003FF8003FF8004D
:1036A0000008000000002008003FF8003FF800106C
:1036B00008001000002000002008003FF8001FF85C
:1036C0000000080000000000000007C0000FF0002C
:1036D00018300030080020080020080030080018CA
:1036E00030000FF00007C0000000000000002001C3
:1036F000003FFF003FFF00101100200900200800DC
:103700002008003038001FF0000FC000000000004B
:10371000000007C0001FF000381800200800200833
:10372000002009001011001FFF003FFF00000100F2
:103730000000002008002008002008003FF8003F9B
:10374000F8000808001008002008002000003000E1
:10375000003000000000000000000000000C7800B5
:103760001E180033080023080021080021880021CA
:10377000980030F0003860000000000000002000D9
:1037800000200000200000FFF003FFF800200800E8
:1037900020080020080000300000000000000000A9
:1037A00000002000003FF0007FF800001800000833
:1037B000000008002010003FF8007FF0000010001B
:1037C0000000000000002000003000003C00003F2E
:1037D000800023F0000078000070002380003C008F
:1037E000003000002000002000003C00003FE0000E
:1037F00023F80000E0002700003E00003FE0002129
:10380000F80001E0003E0000200000000000200859
:10381000002008003838003E680027800003C800F8
:103820002CF80038380020180020080000000000A4
:1038300000002000003003003C01003F830023EC27
:10384000000070002380003C0000200000200000E9
:1038500000000000000000000038080020380020B0
:10386000F80023E8002F88003E08003808002018E0
:1038700000007000000000000000000000000000D8
:1038800000000000000008000014001FF7FC3000DA
:103890000620000200000000000000000000000000
:1038A000000000000000000000000000FFFFFF001B
:1038B0000000000000000000000000000000000008
:1038C000000000002000023000061FF7FC0014007A
:1038D00000080000000000000000000000000000E0
:1038E00000000000001800006000004000004000E0
:1038F0000020000010000008000004000004000088
:103900000C00001000002002200227BE2022F0221E
:103910002FBE202220A22F22223EF32222A2223ECC
:103920002202200200000000000443044D08411060
:1039300041204140418241017FFE41004100410060
:103940004100010000000010002000C0070000003E
:1039500000020001FFFE0000000000000400020061
:10396000018000700000001010101190129014904F
:103970001890F09017FF10901090109010901090E9
:103980001010001000003100A10069002910A910DA
:1039900069F02B002D006900A10031000000040037
:1039A0000400F58096809480948094809490F490A4
:1039B00004E0040000000000D839000800000020E6
:1039C0003800000028010008103A000838000020E4
:1039D000600A00004401000800A24A040000000040
:1039E00000000000010203040607080900000000AF
:1039F0000000000001020304010203040607080995
:103A00000204060800000000000000000F00000093
:04000005080000ED02
:00000001FF
